:020000040800F2
:1000000000500020D9000008DF000008DF000008D1
:10001000DF000008DF000008DF000008000000002B
:10002000000000000000000000000000DF000008E9
:10003000DF00000800000000DF000008DF0000080B
:1000400000234FF0010C10B4214983B00093CDF888
:1000500004C08A691F4842F005028A61D0F804286A
:10006000C0F80438D0F8042842F03332C0F804282D
:10007000D0F80028C0F80038D0F8003843F08833B2
:10008000C0F80038D0F80C3823F00103C0F80C3861
:10009000436823F0E0634360436843F000734360C8
:1000A0000023D0F808480CFA03F1214203F10802BA
:1000B000D0F80C180CFA02F203F1010314BF0A4342
:1000C00021EA0202082BC0F80C28EAD1E8E700BFB9
:1000D0000010024000000140FFF7B2FFFEE7FFF70B
:0200E000FEBF61
:0400000508000040AF
:00000001FF
