:020000040800F2
:1000000000500020E9000008EF000008EF000008A1
:10001000EF000008EF000008EF00000800000000FB
:10002000000000000000000000000000EF000008D9
:10003000EF00000800000000EF000008EF000008DB
:1000400000B54FF0000E25484EF2FF0C826924499E
:1000500042F00C028261D1F80428224B6FF31302A4
:10006000C1F80428D1F804281343C1F80438D1F8A2
:100070000038C1F800E8D1F8003843F08833C1F8FF
:100080000038D1F8043CC3F31303C1F8043CD1F8A1
:10009000043C43F04C5343F44013C1F8043CD1F802
:1000A0000C3843F0FF03C1F80C38D1F80838D1F808
:1000B0000C28DB43DBB21B0203F4F85002EA0C020B
:1000C0000243C1F80C28D1F80C2C03F46043C2F3AE
:1000D0000C021343C1F80C3CE7E700BF00100240DC
:1000E0000000014033330300FFF7AAFFFEE7FFF7EC
:0200F000FEBF51
:0400000508000040AF
:00000001FF
