:020000040800F2
:1000000000500020C5000008CB000008CB0000080D
:10001000CB000008CB000008CB0000080000000067
:10002000000000000000000000000000CB000008FD
:10003000CB00000800000000CB000008CB00000847
:100040000020012344F61F6184B0DFF870C00190E6
:100050000293DCF818301A4A43F00403CCF8183045
:10006000D2F80038C2F80008D2F8003843F4603300
:10007000C2F80038D2F80C3823F00103C2F80C386B
:10008000D2F808381B07FBD50390039B8B4206D898
:1000900000BF039B01330393039B8B42F8D9D2F833
:1000A00008381B0705D5D2F80C3883F01003C2F8C6
:1000B0000C38D2F808381B07FBD4E1E700100240E7
:0E00C00000000140FFF7BCFFFEE7FFF7FEBFA8
:0400000508000040AF
:00000001FF
