:020000040800F2
:1000000000500020E1000008E7000008E7000008B9
:10001000E7000008E7000008E70000080000000013
:10002000000000000000000000000000E7000008E1
:10003000E700000800000000E7000008E7000008F3
:10004000002240F6B731DFF890C02448DCF81830C1
:1000500084B043F01003CCF81830436823F47003E5
:100060004360436843F440134360C36823F4005380
:10007000C36002920392039B8B4211D80292029BAF
:10008000B3F5487F06D2029B01330293029BB3F57E
:10009000487FF8D3039B01330393039B8B42EDD935
:1000A000C36843F40053C36000920192019B8B42EA
:1000B000DBD80092009BB3F5487F06D2009B01334A
:1000C0000093009BB3F5487FF8D3019B0133019364
:1000D000019B8B42EDD9C8E700100240001001409F
:0A00E000FFF7AEFFFEE7FFF7FEBFDB
:0400000508000040AF
:00000001FF
