:020000040800F2
:1000000000500020E1000008E7000008E7000008B9
:10001000E7000008E7000008E70000080000000013
:10002000000000000000000000000000E7000008E1
:10003000E700000800000000E7000008E7000008F3
:10004000002225482549836984B043F01003836169
:100050004B6823F470034B604B6843F440134B60D0
:10006000CB6823F40053CB6002920392039BB3F559
:100070007A7F12D20292029BB3F5487F06D2029B8E
:1000800001330293029BB3F5487FF8D3039B0133FE
:100090000393039BB3F57A7FECD3CB6843F400530F
:1000A000CB6000920192019BB3F57A7FD8D2009287
:1000B000009BB3F5487F06D2009B01330093009B61
:1000C000B3F5487FF8D3019B01330193019BB3F54E
:1000D0007A7FECD3C4E700BF00100240001001405B
:0A00E000FFF7AEFFFEE7FFF7FEBFDB
:0400000508000040AF
:00000001FF
