:020000040800F2
:1000000000500020D5000008DB000008DB000008DD
:10001000DB000008DB000008DB0000080000000037
:10002000000000000000000000000000DB000008ED
:10003000DB00000800000000DB000008DB00000817
:100040000021012384B02148009101938369204A53
:1000500043F004038361D2F80038C2F80018D2F8E4
:10006000003843F46033C2F80038D2F80C3823F07B
:100070000103C2F80C38D2F808381B07FBD50291EF
:100080000391039B1D2B11D80291029BB3F5487F6E
:1000900006D2029B01330293029BB3F5487FF8D34B
:1000A000039B01330393039B1D2BEDD9D2F8083832
:1000B000180705D5D2F80C3883F01003C2F80C38B5
:1000C000D2F808381B07FBD4D5E700BF0010024068
:0E00D00000000140FFF7B4FFFEE7FFF7FEBFA0
:0400000508000040AF
:00000001FF
