:020000040800F2
:1000000000500020D1000008D7000008D7000008E9
:10001000D7000008D7000008D70000080000000043
:10002000000000000000000000000000D7000008F1
:10003000D700000800000000D7000008D700000823
:1000400000212148214A836982B043F0040383617F
:10005000D2F8003823F47F23C2F80038D2F80038F1
:1000600043F46033C2F80038D2F80C3843F0080388
:10007000C2F80C38D2F808381B07FBD50091019163
:10008000019B1D2B11D80091009BB3F5487F06D230
:10009000009B01330093009BB3F5487FF8D3019B8D
:1000A00001330193019B1D2BEDD9D2F808381807B5
:1000B00005D5D2F80C3883F01003C2F80C38D2F80A
:1000C00008381B07FBD4D5E70010024000000140B0
:0A00D000FFF7B6FFFEE7FFF7FEBFE3
:0400000508000040AF
:00000001FF
