:020000040800F2
:1000000000500020ED000008F3000008F300000895
:10001000F3000008F3000008F300000800000000EF
:10002000000000000000000000000000F3000008D5
:10003000F300000800000000F3000008F3000008CF
:100040000022012000B54FF6FF7C4FF0FF3E85B047
:10005000244C00920190A369234943F00403A36157
:10006000D1F80038C1F80028D1F8003843F0333314
:10007000C1F8003802920392039BB3F57A7F12D243
:100080000292029BB3F5487F06D2029B0133029392
:10009000029BB3F5487FF8D3039B01330393039B83
:1000A000B3F57A7FECD3D1F80C3843EA0C03C1F8EE
:1000B0000C38009CD1F80C3800FA04F423EA04034D
:1000C000C1F80C38009B062B06DDCDF804E0019C3E
:1000D000009B23440093CDE7009B002BD8BF0190E9
:1000E000F5E700BF0010024000000140FFF7A8FF45
:0600F000FEE7FFF7FEBF72
:0400000508000040AF
:00000001FF
