:020000040800F2
:1000000000500020F1000008F7000008F700000889
:10001000F7000008F7000008F700000800000000E3
:10002000000000000000000000000000F7000008D1
:10003000F700000800000000F7000008F7000008C3
:1000400000214FF0010C00B54FF0FF3E85B0254C6C
:100050000091CDF804C0A369234843F00403A361D1
:10006000D0F80038C0F80018D0F800381F4A43F024
:100070003333C0F8003802910391039BB3F57A7FC4
:1000800012D20291029BB3F5487F06D2029B013344
:100090000293029BB3F5487FF8D3039B013303938C
:1000A000039BB3F57A7FECD3D0F80C381340C0F83B
:1000B0000C38009BD0F80C480CFA03F32343C0F82B
:1000C0000C38009B062B06DDCDF804E0019C009B5C
:1000D00023440093CFE7009B002BD8BFCDF804C08A
:1000E000F4E700BF00100240000001400000FFFFE5
:0A00F000FFF7A6FFFEE7FFF7FEBFD3
:0400000508000040AF
:00000001FF
